{
  "contractName": "Series",
  "abi": [
    {
      "constant": true,
      "inputs": [],
      "name": "episodeCounter",
      "outputs": [
        {
          "name": "",
          "type": "uint256"
        }
      ],
      "payable": false,
      "stateMutability": "view",
      "type": "function"
    },
    {
      "constant": true,
      "inputs": [
        {
          "name": "",
          "type": "address"
        }
      ],
      "name": "pledges",
      "outputs": [
        {
          "name": "",
          "type": "uint256"
        }
      ],
      "payable": false,
      "stateMutability": "view",
      "type": "function"
    },
    {
      "constant": true,
      "inputs": [],
      "name": "title",
      "outputs": [
        {
          "name": "",
          "type": "string"
        }
      ],
      "payable": false,
      "stateMutability": "view",
      "type": "function"
    },
    {
      "constant": true,
      "inputs": [
        {
          "name": "",
          "type": "uint256"
        }
      ],
      "name": "publishedEpisodes",
      "outputs": [
        {
          "name": "",
          "type": "string"
        }
      ],
      "payable": false,
      "stateMutability": "view",
      "type": "function"
    },
    {
      "constant": true,
      "inputs": [],
      "name": "pledgeperEpisode",
      "outputs": [
        {
          "name": "",
          "type": "uint256"
        }
      ],
      "payable": false,
      "stateMutability": "view",
      "type": "function"
    },
    {
      "constant": true,
      "inputs": [],
      "name": "minimumPublicationPeriod",
      "outputs": [
        {
          "name": "",
          "type": "uint256"
        }
      ],
      "payable": false,
      "stateMutability": "view",
      "type": "function"
    },
    {
      "constant": true,
      "inputs": [],
      "name": "lastPublicationBlock",
      "outputs": [
        {
          "name": "",
          "type": "uint256"
        }
      ],
      "payable": false,
      "stateMutability": "view",
      "type": "function"
    },
    {
      "inputs": [
        {
          "name": "_title",
          "type": "string"
        },
        {
          "name": "_pledgeperEpisode",
          "type": "uint256"
        },
        {
          "name": "_minimumPublicationPeriod",
          "type": "uint256"
        }
      ],
      "payable": false,
      "stateMutability": "nonpayable",
      "type": "constructor"
    },
    {
      "anonymous": false,
      "inputs": [
        {
          "indexed": false,
          "name": "pledger",
          "type": "address"
        }
      ],
      "name": "NewPledger",
      "type": "event"
    },
    {
      "anonymous": false,
      "inputs": [
        {
          "indexed": true,
          "name": "pledger",
          "type": "address"
        },
        {
          "indexed": false,
          "name": "pledge",
          "type": "uint256"
        },
        {
          "indexed": false,
          "name": "totalPledge",
          "type": "uint256"
        }
      ],
      "name": "NewPledge",
      "type": "event"
    },
    {
      "anonymous": false,
      "inputs": [
        {
          "indexed": false,
          "name": "episodeId",
          "type": "uint256"
        },
        {
          "indexed": false,
          "name": "episodeLink",
          "type": "string"
        },
        {
          "indexed": false,
          "name": "episodePay",
          "type": "uint256"
        }
      ],
      "name": "NewPublication",
      "type": "event"
    },
    {
      "anonymous": false,
      "inputs": [
        {
          "indexed": true,
          "name": "pledger",
          "type": "address"
        },
        {
          "indexed": false,
          "name": "pledge",
          "type": "uint256"
        }
      ],
      "name": "Withdrawal",
      "type": "event"
    },
    {
      "anonymous": false,
      "inputs": [
        {
          "indexed": true,
          "name": "pledger",
          "type": "address"
        },
        {
          "indexed": false,
          "name": "pledge",
          "type": "uint256"
        }
      ],
      "name": "PledgeInsufficient",
      "type": "event"
    },
    {
      "anonymous": false,
      "inputs": [
        {
          "indexed": false,
          "name": "balanceBeforeClose",
          "type": "uint256"
        }
      ],
      "name": "SeriesClosed",
      "type": "event"
    },
    {
      "constant": false,
      "inputs": [],
      "name": "pledge",
      "outputs": [],
      "payable": true,
      "stateMutability": "payable",
      "type": "function"
    },
    {
      "constant": false,
      "inputs": [],
      "name": "withdraw",
      "outputs": [],
      "payable": false,
      "stateMutability": "nonpayable",
      "type": "function"
    },
    {
      "constant": false,
      "inputs": [
        {
          "name": "episodeLink",
          "type": "string"
        }
      ],
      "name": "publish",
      "outputs": [],
      "payable": false,
      "stateMutability": "nonpayable",
      "type": "function"
    },
    {
      "constant": false,
      "inputs": [],
      "name": "close",
      "outputs": [],
      "payable": false,
      "stateMutability": "nonpayable",
      "type": "function"
    },
    {
      "constant": true,
      "inputs": [],
      "name": "totalPledgers",
      "outputs": [
        {
          "name": "",
          "type": "uint256"
        }
      ],
      "payable": false,
      "stateMutability": "view",
      "type": "function"
    },
    {
      "constant": true,
      "inputs": [],
      "name": "activePledgers",
      "outputs": [
        {
          "name": "",
          "type": "uint256"
        }
      ],
      "payable": false,
      "stateMutability": "view",
      "type": "function"
    },
    {
      "constant": true,
      "inputs": [],
      "name": "nextEpisodePay",
      "outputs": [
        {
          "name": "",
          "type": "uint256"
        }
      ],
      "payable": false,
      "stateMutability": "view",
      "type": "function"
    }
  ],
  "bytecode": "0x60806040523480156200001157600080fd5b50604051620016f8380380620016f883398101806040528101908080518201929190602001805190602001909291908051906020019092919050505033600860006101000a81548173ffffffffffffffffffffffffffffffffffffffff021916908373ffffffffffffffffffffffffffffffffffffffff1602179055508260009080519060200190620000a6929190620000be565b5081600181905550806002819055505050506200016d565b828054600181600116156101000203166002900490600052602060002090601f016020900481019282601f106200010157805160ff191683800117855562000132565b8280016001018555821562000132579182015b828111156200013157825182559160200191906001019062000114565b5b50905062000141919062000145565b5090565b6200016a91905b80821115620001665760008160009055506001016200014c565b5090565b90565b61157b806200017d6000396000f3006080604052600436106100d0576000357c0100000000000000000000000000000000000000000000000000000000900463ffffffff1680630a7313ef146100d5578063243e280b14610100578063343576f5146101695780633ccfd60b146101c057806343d726d6146101d75780634a79d50c146101ee5780636884e3ff1461027e57806382f69aef1461032457806388ffe8671461034f5780639176b8271461035957806393af619714610384578063a1841637146103af578063cc53a005146103da578063e650812f14610405575b600080fd5b3480156100e157600080fd5b506100ea610430565b6040518082815260200191505060405180910390f35b34801561010c57600080fd5b50610167600480360381019080803590602001908201803590602001908080601f0160208091040260200160405190810160405280939291908181526020018383808284378201915050505050509192919290505050610436565b005b34801561017557600080fd5b506101aa600480360381019080803573ffffffffffffffffffffffffffffffffffffffff1690602001909291905050506109cd565b6040518082815260200191505060405180910390f35b3480156101cc57600080fd5b506101d56109e5565b005b3480156101e357600080fd5b506101ec610b5f565b005b3480156101fa57600080fd5b50610203610d70565b6040518080602001828103825283818151815260200191508051906020019080838360005b83811015610243578082015181840152602081019050610228565b50505050905090810190601f1680156102705780820380516001836020036101000a031916815260200191505b509250505060405180910390f35b34801561028a57600080fd5b506102a960048036038101908080359060200190929190505050610e0e565b6040518080602001828103825283818151815260200191508051906020019080838360005b838110156102e95780820151818401526020810190506102ce565b50505050905090810190601f1680156103165780820380516001836020036101000a031916815260200191505b509250505060405180910390f35b34801561033057600080fd5b50610339610ebe565b6040518082815260200191505060405180910390f35b610357610f79565b005b34801561036557600080fd5b5061036e6113d1565b6040518082815260200191505060405180910390f35b34801561039057600080fd5b506103996113d7565b6040518082815260200191505060405180910390f35b3480156103bb57600080fd5b506103c46113dd565b6040518082815260200191505060405180910390f35b3480156103e657600080fd5b506103ef6113ea565b6040518082815260200191505060405180910390f35b34801561041157600080fd5b5061041a6113f0565b6040518082815260200191505060405180910390f35b60075481565b600080600860009054906101000a900473ffffffffffffffffffffffffffffffffffffffff1673ffffffffffffffffffffffffffffffffffffffff163373ffffffffffffffffffffffffffffffffffffffff1614151561049557600080fd5b600060055414806104ab57506002546005540143115b1515610545576040517f08c379a00000000000000000000000000000000000000000000000000000000081526004018080602001828103825260228152602001807f4f776e65722063616e6e6f74207075626c69736820616761696e20736f20736f81526020017f6f6e00000000000000000000000000000000000000000000000000000000000081525060400191505060405180910390fd5b436005819055506007600081548092919060010191905055508260066000600754815260200190815260200160002090805190602001906105879291906114aa565b5060009150600090505b6004805490508110156108b157600154600360006004848154811015156105b457fe5b9060005260206000200160009054906101000a900473ffffffffffffffffffffffffffffffffffffffff1673ffffffffffffffffffffffffffffffffffffffff1673ffffffffffffffffffffffffffffffffffffffff168152602001908152602001600020541015156108a4576001546003600060048481548110151561063757fe5b9060005260206000200160009054906101000a900473ffffffffffffffffffffffffffffffffffffffff1673ffffffffffffffffffffffffffffffffffffffff1673ffffffffffffffffffffffffffffffffffffffff1681526020019081526020016000205403600360006004848154811015156106b157fe5b9060005260206000200160009054906101000a900473ffffffffffffffffffffffffffffffffffffffff1673ffffffffffffffffffffffffffffffffffffffff1673ffffffffffffffffffffffffffffffffffffffff16815260200190815260200160002081905550600154820191506001546003600060048481548110151561073757fe5b9060005260206000200160009054906101000a900473ffffffffffffffffffffffffffffffffffffffff1673ffffffffffffffffffffffffffffffffffffffff1673ffffffffffffffffffffffffffffffffffffffff1681526020019081526020016000205410156108a3576004818154811015156107b257fe5b9060005260206000200160009054906101000a900473ffffffffffffffffffffffffffffffffffffffff1673ffffffffffffffffffffffffffffffffffffffff167f7e2b6838b54fdea6595626210497d1e1870ea980b514c4e153a462720d6138756003600060048581548110151561082757fe5b9060005260206000200160009054906101000a900473ffffffffffffffffffffffffffffffffffffffff1673ffffffffffffffffffffffffffffffffffffffff1673ffffffffffffffffffffffffffffffffffffffff168152602001908152602001600020546040518082815260200191505060405180910390a25b5b8080600101915050610591565b600860009054906101000a900473ffffffffffffffffffffffffffffffffffffffff1673ffffffffffffffffffffffffffffffffffffffff166108fc839081150290604051600060405180830381858888f19350505050158015610919573d6000803e3d6000fd5b507fe17858351818836a671102e23b2de870ee725fe15641658a3df082cdf72d65eb60075484846040518084815260200180602001838152602001828103825284818151815260200191508051906020019080838360005b8381101561098c578082015181840152602081019050610971565b50505050905090810190601f1680156109b95780820380516001836020036101000a031916815260200191505b5094505050505060405180910390a1505050565b60036020528060005260406000206000915090505481565b6000600360003373ffffffffffffffffffffffffffffffffffffffff1673ffffffffffffffffffffffffffffffffffffffff1681526020019081526020016000205490506000811115610b5c576000600360003373ffffffffffffffffffffffffffffffffffffffff1673ffffffffffffffffffffffffffffffffffffffff168152602001908152602001600020819055503373ffffffffffffffffffffffffffffffffffffffff166108fc829081150290604051600060405180830381858888f19350505050158015610abd573d6000803e3d6000fd5b503373ffffffffffffffffffffffffffffffffffffffff167f7fcf532c15f0a6db0bd6d0e038bea71d30d808c7d98cb3bf7268a95bf5081b65826040518082815260200191505060405180910390a23373ffffffffffffffffffffffffffffffffffffffff167f7e2b6838b54fdea6595626210497d1e1870ea980b514c4e153a462720d61387560006040518082815260200191505060405180910390a25b50565b6000806000600860009054906101000a900473ffffffffffffffffffffffffffffffffffffffff1673ffffffffffffffffffffffffffffffffffffffff163373ffffffffffffffffffffffffffffffffffffffff16141515610bc057600080fd5b3073ffffffffffffffffffffffffffffffffffffffff16319250600091505b600480549050821015610cfe5760036000600484815481101515610bff57fe5b9060005260206000200160009054906101000a900473ffffffffffffffffffffffffffffffffffffffff1673ffffffffffffffffffffffffffffffffffffffff1673ffffffffffffffffffffffffffffffffffffffff1681526020019081526020016000205490506000811115610cf157600482815481101515610c7f57fe5b9060005260206000200160009054906101000a900473ffffffffffffffffffffffffffffffffffffffff1673ffffffffffffffffffffffffffffffffffffffff166108fc829081150290604051600060405180830381858888f19350505050158015610cef573d6000803e3d6000fd5b505b8180600101925050610bdf565b7fd7cad0a61abe36130e67c3848573bbe5a55b637a05a5e167119b3078b4a1b972836040518082815260200191505060405180910390a1600860009054906101000a900473ffffffffffffffffffffffffffffffffffffffff1673ffffffffffffffffffffffffffffffffffffffff16ff5b60008054600181600116156101000203166002900480601f016020809104026020016040519081016040528092919081815260200182805460018160011615610100020316600290048015610e065780601f10610ddb57610100808354040283529160200191610e06565b820191906000526020600020905b815481529060010190602001808311610de957829003601f168201915b505050505081565b60066020528060005260406000206000915090508054600181600116156101000203166002900480601f016020809104026020016040519081016040528092919081815260200182805460018160011615610100020316600290048015610eb65780601f10610e8b57610100808354040283529160200191610eb6565b820191906000526020600020905b815481529060010190602001808311610e9957829003601f168201915b505050505081565b6000806000809150600090505b600480549050811015610f715760015460036000600484815481101515610eee57fe5b9060005260206000200160009054906101000a900473ffffffffffffffffffffffffffffffffffffffff1673ffffffffffffffffffffffffffffffffffffffff1673ffffffffffffffffffffffffffffffffffffffff16815260200190815260200160002054101515610f645781806001019250505b8080600101915050610ecb565b819250505090565b600080600154600360003373ffffffffffffffffffffffffffffffffffffffff1673ffffffffffffffffffffffffffffffffffffffff1681526020019081526020016000205434011015151561105d576040517f08c379a00000000000000000000000000000000000000000000000000000000081526004018080602001828103825260368152602001807f506c65646765206d7573742062652067726561746572207468616e206d696e6981526020017f6d756d20706c656467652070657220657069736f64650000000000000000000081525060400191505060405180910390fd5b600860009054906101000a900473ffffffffffffffffffffffffffffffffffffffff1673ffffffffffffffffffffffffffffffffffffffff163373ffffffffffffffffffffffffffffffffffffffff1614151515611149576040517f08c379a00000000000000000000000000000000000000000000000000000000081526004018080602001828103825260258152602001807f4f776e65722063616e6e6f7420706c65646765206f6e20697473206f776e207381526020017f657269657300000000000000000000000000000000000000000000000000000081525060400191505060405180910390fd5b60009150600090505b6004805490508110156111e2573373ffffffffffffffffffffffffffffffffffffffff1660048281548110151561118557fe5b9060005260206000200160009054906101000a900473ffffffffffffffffffffffffffffffffffffffff1673ffffffffffffffffffffffffffffffffffffffff1614156111d557600191506111e2565b8080600101915050611152565b8115156112b35760043390806001815401808255809150509060018203906000526020600020016000909192909190916101000a81548173ffffffffffffffffffffffffffffffffffffffff021916908373ffffffffffffffffffffffffffffffffffffffff160217905550507f8102795e7682958ad5fa65f3e72240f4e0d42936a607179c6dc621e634b4939533604051808273ffffffffffffffffffffffffffffffffffffffff1673ffffffffffffffffffffffffffffffffffffffff16815260200191505060405180910390a15b34600360003373ffffffffffffffffffffffffffffffffffffffff1673ffffffffffffffffffffffffffffffffffffffff1681526020019081526020016000205401600360003373ffffffffffffffffffffffffffffffffffffffff1673ffffffffffffffffffffffffffffffffffffffff168152602001908152602001600020819055503373ffffffffffffffffffffffffffffffffffffffff167f2be122dad94bcf7fdc595b52e065047256992abc99aea631bf66b14010529dca34600360003373ffffffffffffffffffffffffffffffffffffffff1673ffffffffffffffffffffffffffffffffffffffff16815260200190815260200160002054604051808381526020018281526020019250505060405180910390a25050565b60015481565b60025481565b6000600480549050905090565b60055481565b6000806000809150600090505b6004805490508110156114a2576001546003600060048481548110151561142057fe5b9060005260206000200160009054906101000a900473ffffffffffffffffffffffffffffffffffffffff1673ffffffffffffffffffffffffffffffffffffffff1673ffffffffffffffffffffffffffffffffffffffff1681526020019081526020016000205410151561149557600154820191505b80806001019150506113fd565b819250505090565b828054600181600116156101000203166002900490600052602060002090601f016020900481019282601f106114eb57805160ff1916838001178555611519565b82800160010185558215611519579182015b828111156115185782518255916020019190600101906114fd565b5b509050611526919061152a565b5090565b61154c91905b80821115611548576000816000905550600101611530565b5090565b905600a165627a7a723058206154c21a86c8d51c068877e5c54badf6ebb0e5a4789dd69dc07ca62ad2e05dac0029",
  "source": "pragma solidity >=0.4.0;\n\n//import 'app/node_modules/openzeppelin-solidity/contracts/math/SafeMath.sol';\n\n//    function add(uint256 a, uint256 b) internal pure returns (uint256) {\n//       uint256 c = a + b;\n//        require(c >= a, \"SafeMath: addition overflow\");\n//\n//       return c;\n//   }\n\n//function sub(uint256 a, uint256 b, string memory errorMessage) internal pure returns (uint256) {\n//        require(b <= a, errorMessage);\n//        uint256 c = a - b;\n//\n//        return c;\n//    }\n\n\ncontract Series{\n    \n//    using SafeMath for uint;\n    string public title;\n    uint public pledgeperEpisode;\n    uint public minimumPublicationPeriod;\n\n    mapping(address => uint) public pledges;\n    address[] pledgers;\n    uint public lastPublicationBlock;\n    mapping(uint => string) public publishedEpisodes;\n    uint public episodeCounter;\n\n    address owner;\n\n    event NewPledger(address pledger);\n    event NewPledge(address indexed pledger, uint pledge, uint totalPledge);\n    event NewPublication(uint episodeId, string episodeLink, uint episodePay);\n    event Withdrawal(address indexed pledger, uint pledge);\n    event PledgeInsufficient(address indexed pledger, uint pledge);\n    event SeriesClosed(uint balanceBeforeClose);    \n\n    modifier only_owner() {\n        require(msg.sender == owner);\n        _;\n    }\n\n    \n    constructor (string memory _title, uint _pledgeperEpisode, uint _minimumPublicationPeriod) public {\n        owner = msg.sender;\n        title = _title;\n        pledgeperEpisode = _pledgeperEpisode;\n        minimumPublicationPeriod = _minimumPublicationPeriod;    \n\t\n    }\n\nfunction pledge() public payable {\n    require(msg.value + pledges[msg.sender] >= pledgeperEpisode, \"Pledge must be greater than minimum pledge per episode\");\n    require(msg.sender != owner, \"Owner cannot pledge on its own series\");\n\n    bool oldPledger = false;\n    for(uint i=0; i<pledgers.length;i++ )\n    {\n        if(pledgers[i] == msg.sender) {\n            oldPledger = true;\n            break;\n        }\n    }\n    if(!oldPledger) {\n        pledgers.push(msg.sender);\n        emit NewPledger(msg.sender);\n    }\n    pledges[msg.sender] = pledges[msg.sender]+msg.value;\n    emit NewPledge(msg.sender,msg.value,pledges[msg.sender]);\n\n}\n\nfunction withdraw() public {\n    uint amount = pledges[msg.sender];\n    if (amount > 0) {\n        pledges[msg.sender] = 0;\n        msg.sender.transfer(amount);\n        emit Withdrawal(msg.sender,amount);\n        emit PledgeInsufficient(msg.sender,0);\n    }    \n\n}\n\nfunction publish (string memory episodeLink) public only_owner {\n    require(lastPublicationBlock == 0 || block.number > lastPublicationBlock + minimumPublicationPeriod,\n    \"Owner cannot publish again so soon\");\n    lastPublicationBlock = block.number;\n    episodeCounter++;\n    publishedEpisodes[episodeCounter] = episodeLink;\n\n    uint episodePay = 0;\n    for (uint i=0; i < pledgers.length;i++)\n    {\n        if(pledges[pledgers[i]] >= pledgeperEpisode) {\n        pledges[pledgers[i]] = pledges[pledgers[i]] - pledgeperEpisode;\n        episodePay = episodePay + pledgeperEpisode;\n        if(pledges[pledgers[i]]<pledgeperEpisode){\n            emit PledgeInsufficient(pledgers[i],pledges[pledgers[i]]);\n        }\n        }\n    }\n    owner.transfer(episodePay);\n    emit NewPublication(episodeCounter,episodeLink,episodePay);\n}\n\nfunction close() public only_owner {\n    uint contractBalance = address(this).balance;\n    for (uint i=0; i< pledgers.length;i++){\n        uint amount = pledges[pledgers[i]];\n        if(amount>0) {\n            pledgers[i].transfer(amount);\n        }\n    }\n        emit SeriesClosed(contractBalance);\n        selfdestruct(owner);\n}\n\nfunction totalPledgers() public view returns(uint) {\n    return pledgers.length;\n}\n\nfunction activePledgers() public view returns(uint) {\n    uint active = 0;\n    for(uint i=0; i< pledgers.length;i++)\n    {\n        if(pledges[pledgers[i]] >= pledgeperEpisode) {\n            active++;\n        }\n    }\n    return active;\n}\nfunction nextEpisodePay() public view returns(uint) {\n    uint episodePay=0;\n    for(uint i = 0; i < pledgers.length; i++ ){\n        if(pledges[pledgers[i]] >= pledgeperEpisode) {\n            episodePay = episodePay + pledgeperEpisode;\n        }\n    }\n    return episodePay;\n}\n\n}\n",
  "sourcePath": "/home/abubakr/Desktop/crowd2/contracts/Series.sol",
  "compiler": {
    "name": "solc",
    "version": "0.4.25+commit.59dbf8f1.Emscripten.clang"
  },
  "schemaVersion": "2.0.2",
  "updatedAt": "2020-12-15T20:49:05.399Z"
}